{
	"data": {
		"bytecode": {
			"linkReferences": {},
			"object": "608060405234801561000f575f80fd5b506040516116c23803806116c2833981810160405281019061003191906100fb565b5f81908060018154018082558091505060019003905f5260205f20015f9091909190916101000a81548173ffffffffffffffffffffffffffffffffffffffff021916908373ffffffffffffffffffffffffffffffffffffffff1602179055505f60018190555050610126565b5f80fd5b5f73ffffffffffffffffffffffffffffffffffffffff82169050919050565b5f6100ca826100a1565b9050919050565b6100da816100c0565b81146100e4575f80fd5b50565b5f815190506100f5816100d1565b92915050565b5f602082840312156101105761010f61009d565b5b5f61011d848285016100e7565b91505092915050565b61158f806101335f395ff3fe608060405234801561000f575f80fd5b5060043610610055575f3560e01c8063196cae59146100595780636a348b7b146100755780637165889614610091578063bfa0fc93146100c1578063dc296ae1146100f2575b5f80fd5b610073600480360381019061006e9190610a92565b610122565b005b61008f600480360381019061008a9190610bb3565b6102ed565b005b6100ab60048036038101906100a69190610c03565b6104af565b6040516100b89190610d5e565b60405180910390f35b6100db60048036038101906100d69190610c03565b6106ef565b6040516100e9929190610d8d565b60405180910390f35b61010c60048036038101906101079190610db4565b610752565b6040516101199190610e01565b60405180910390f35b835f805b5f805490508110156101b5578273ffffffffffffffffffffffffffffffffffffffff165f828154811061015c5761015b610e1a565b5b905f5260205f20015f9054906101000a900473ffffffffffffffffffffffffffffffffffffffff1673ffffffffffffffffffffffffffffffffffffffff16036101a857600191506101b5565b8080600101915050610126565b50806101c4576101c36107b4565b5b60015f8154809291906101d690610e74565b91905055506040518060e0016040528060015481526020018681526020018581526020018481526020015f81526020015f81526020016001151581525060025f60015481526020019081526020015f205f820151815f0155602082015181600101908161024391906110b5565b50604082015181600201908161025991906110b5565b50606082015181600301908161026f91906110b5565b506080820151816004015560a0820151816005015560c0820151816006015f6101000a81548160ff0219169083151502179055509050507fb350a44d99ee5e618cc6b9099e6e1921ccb2e72b5d611d1f17623d17f83110de6001548686866040516102dd94939291906111cc565b60405180910390a1505050505050565b60025f8381526020019081526020015f206006015f9054906101000a900460ff1661031b5761031a6107f3565b5b60035f8473ffffffffffffffffffffffffffffffffffffffff1673ffffffffffffffffffffffffffffffffffffffff1681526020019081526020015f205f8381526020019081526020015f205f9054906101000a900460ff161561038257610381610832565b5b60018160ff161415801561039a575060028160ff1614155b156103a8576103a7610871565b5b60018160ff16036103e15760025f8381526020019081526020015f206004015f8154809291906103d790610e74565b919050555061040b565b60025f8381526020019081526020015f206005015f81548092919061040590610e74565b91905055505b600160035f8573ffffffffffffffffffffffffffffffffffffffff1673ffffffffffffffffffffffffffffffffffffffff1681526020019081526020015f205f8481526020019081526020015f205f6101000a81548160ff0219169083151502179055507f094f80829c509370abb2d421a078ba5926755d3de25d021dacf7bbd19853f7a28284836040516104a293929190611242565b60405180910390a1505050565b6104b76108b0565b60025f8381526020019081526020015f206006015f9054906101000a900460ff166104e5576104e46107f3565b5b60025f8381526020019081526020015f206040518060e00160405290815f820154815260200160018201805461051a90610ee8565b80601f016020809104026020016040519081016040528092919081815260200182805461054690610ee8565b80156105915780601f1061056857610100808354040283529160200191610591565b820191905f5260205f20905b81548152906001019060200180831161057457829003601f168201915b505050505081526020016002820180546105aa90610ee8565b80601f01602080910402602001604051908101604052809291908181526020018280546105d690610ee8565b80156106215780601f106105f857610100808354040283529160200191610621565b820191905f5260205f20905b81548152906001019060200180831161060457829003601f168201915b5050505050815260200160038201805461063a90610ee8565b80601f016020809104026020016040519081016040528092919081815260200182805461066690610ee8565b80156106b15780601f10610688576101008083540402835291602001916106b1565b820191905f5260205f20905b81548152906001019060200180831161069457829003601f168201915b505050505081526020016004820154815260200160058201548152602001600682015f9054906101000a900460ff1615151515815250509050919050565b5f8060025f8481526020019081526020015f206006015f9054906101000a900460ff1661071f5761071e6107f3565b5b60025f8481526020019081526020015f206004015460025f8581526020019081526020015f206005015491509150915091565b5f60035f8373ffffffffffffffffffffffffffffffffffffffff1673ffffffffffffffffffffffffffffffffffffffff1681526020019081526020015f205f8481526020019081526020015f205f9054906101000a900460ff16905092915050565b6103e86040517fb7418b0f0000000000000000000000000000000000000000000000000000000081526004016107ea91906112fa565b60405180910390fd5b6107d06040517f21df64bb00000000000000000000000000000000000000000000000000000000815260040161082991906113a9565b60405180910390fd5b610bb86040517fb78815a4000000000000000000000000000000000000000000000000000000008152600401610868919061147e565b60405180910390fd5b610fa06040517f51c551dc0000000000000000000000000000000000000000000000000000000081526004016108a7919061152d565b60405180910390fd5b6040518060e001604052805f81526020016060815260200160608152602001606081526020015f81526020015f81526020015f151581525090565b5f604051905090565b5f80fd5b5f80fd5b5f73ffffffffffffffffffffffffffffffffffffffff82169050919050565b5f610925826108fc565b9050919050565b6109358161091b565b811461093f575f80fd5b50565b5f813590506109508161092c565b92915050565b5f80fd5b5f80fd5b5f601f19601f8301169050919050565b7f4e487b71000000000000000000000000000000000000000000000000000000005f52604160045260245ffd5b6109a48261095e565b810181811067ffffffffffffffff821117156109c3576109c261096e565b5b80604052505050565b5f6109d56108eb565b90506109e1828261099b565b919050565b5f67ffffffffffffffff821115610a00576109ff61096e565b5b610a098261095e565b9050602081019050919050565b828183375f83830152505050565b5f610a36610a31846109e6565b6109cc565b905082815260208101848484011115610a5257610a5161095a565b5b610a5d848285610a16565b509392505050565b5f82601f830112610a7957610a78610956565b5b8135610a89848260208601610a24565b91505092915050565b5f805f8060808587031215610aaa57610aa96108f4565b5b5f610ab787828801610942565b945050602085013567ffffffffffffffff811115610ad857610ad76108f8565b5b610ae487828801610a65565b935050604085013567ffffffffffffffff811115610b0557610b046108f8565b5b610b1187828801610a65565b925050606085013567ffffffffffffffff811115610b3257610b316108f8565b5b610b3e87828801610a65565b91505092959194509250565b5f819050919050565b610b5c81610b4a565b8114610b66575f80fd5b50565b5f81359050610b7781610b53565b92915050565b5f60ff82169050919050565b610b9281610b7d565b8114610b9c575f80fd5b50565b5f81359050610bad81610b89565b92915050565b5f805f60608486031215610bca57610bc96108f4565b5b5f610bd786828701610942565b9350506020610be886828701610b69565b9250506040610bf986828701610b9f565b9150509250925092565b5f60208284031215610c1857610c176108f4565b5b5f610c2584828501610b69565b91505092915050565b610c3781610b4a565b82525050565b5f81519050919050565b5f82825260208201905092915050565b8281835e5f83830152505050565b5f610c6f82610c3d565b610c798185610c47565b9350610c89818560208601610c57565b610c928161095e565b840191505092915050565b5f8115159050919050565b610cb181610c9d565b82525050565b5f60e083015f830151610ccc5f860182610c2e565b5060208301518482036020860152610ce48282610c65565b91505060408301518482036040860152610cfe8282610c65565b91505060608301518482036060860152610d188282610c65565b9150506080830151610d2d6080860182610c2e565b5060a0830151610d4060a0860182610c2e565b5060c0830151610d5360c0860182610ca8565b508091505092915050565b5f6020820190508181035f830152610d768184610cb7565b905092915050565b610d8781610b4a565b82525050565b5f604082019050610da05f830185610d7e565b610dad6020830184610d7e565b9392505050565b5f8060408385031215610dca57610dc96108f4565b5b5f610dd785828601610b69565b9250506020610de885828601610942565b9150509250929050565b610dfb81610c9d565b82525050565b5f602082019050610e145f830184610df2565b92915050565b7f4e487b71000000000000000000000000000000000000000000000000000000005f52603260045260245ffd5b7f4e487b71000000000000000000000000000000000000000000000000000000005f52601160045260245ffd5b5f610e7e82610b4a565b91507fffffffffffffffffffffffffffffffffffffffffffffffffffffffffffffffff8203610eb057610eaf610e47565b5b600182019050919050565b7f4e487b71000000000000000000000000000000000000000000000000000000005f52602260045260245ffd5b5f6002820490506001821680610eff57607f821691505b602082108103610f1257610f11610ebb565b5b50919050565b5f819050815f5260205f209050919050565b5f6020601f8301049050919050565b5f82821b905092915050565b5f60088302610f747fffffffffffffffffffffffffffffffffffffffffffffffffffffffffffffffff82610f39565b610f7e8683610f39565b95508019841693508086168417925050509392505050565b5f819050919050565b5f610fb9610fb4610faf84610b4a565b610f96565b610b4a565b9050919050565b5f819050919050565b610fd283610f9f565b610fe6610fde82610fc0565b848454610f45565b825550505050565b5f90565b610ffa610fee565b611005818484610fc9565b505050565b5b818110156110285761101d5f82610ff2565b60018101905061100b565b5050565b601f82111561106d5761103e81610f18565b61104784610f2a565b81016020851015611056578190505b61106a61106285610f2a565b83018261100a565b50505b505050565b5f82821c905092915050565b5f61108d5f1984600802611072565b1980831691505092915050565b5f6110a5838361107e565b9150826002028217905092915050565b6110be82610c3d565b67ffffffffffffffff8111156110d7576110d661096e565b5b6110e18254610ee8565b6110ec82828561102c565b5f60209050601f83116001811461111d575f841561110b578287015190505b611115858261109a565b86555061117c565b601f19841661112b86610f18565b5f5b828110156111525784890151825560018201915060208501945060208101905061112d565b8683101561116f578489015161116b601f89168261107e565b8355505b6001600288020188555050505b505050505050565b5f82825260208201905092915050565b5f61119e82610c3d565b6111a88185611184565b93506111b8818560208601610c57565b6111c18161095e565b840191505092915050565b5f6080820190506111df5f830187610d7e565b81810360208301526111f18186611194565b905081810360408301526112058185611194565b905081810360608301526112198184611194565b905095945050505050565b61122d8161091b565b82525050565b61123c81610b7d565b82525050565b5f6060820190506112555f830186610d7e565b6112626020830185611224565b61126f6040830184611233565b949350505050565b5f819050919050565b5f61129a61129561129084611277565b610f96565b610b4a565b9050919050565b6112aa81611280565b82525050565b7f496e76616c6964205065726d697373696f6e00000000000000000000000000005f82015250565b5f6112e4601283611184565b91506112ef826112b0565b602082019050919050565b5f60408201905061130d5f8301846112a1565b818103602083015261131e816112d8565b905092915050565b5f819050919050565b5f61134961134461133f84611326565b610f96565b610b4a565b9050919050565b6113598161132f565b82525050565b7f546f706963206e6f7420666f756e6400000000000000000000000000000000005f82015250565b5f611393600f83611184565b915061139e8261135f565b602082019050919050565b5f6040820190506113bc5f830184611350565b81810360208301526113cd81611387565b905092915050565b5f819050919050565b5f6113f86113f36113ee846113d5565b610f96565b610b4a565b9050919050565b611408816113de565b82525050565b7f557365722068617320616c726561647920766f746564206f6e207468697320745f8201527f6f70696300000000000000000000000000000000000000000000000000000000602082015250565b5f611468602483611184565b91506114738261140e565b604082019050919050565b5f6040820190506114915f8301846113ff565b81810360208301526114a28161145c565b905092915050565b5f819050919050565b5f6114cd6114c86114c3846114aa565b610f96565b610b4a565b9050919050565b6114dd816114b3565b82525050565b7f496e76616c696420766f7465206f7074696f6e000000000000000000000000005f82015250565b5f611517601383611184565b9150611522826114e3565b602082019050919050565b5f6040820190506115405f8301846114d4565b81810360208301526115518161150b565b90509291505056fea2646970667358221220f195f542c09c2275356f1cd80efb5cdc7ce3bce4a47c2a87099c85db05ca743264736f6c634300081a0033",
			"opcodes": "PUSH1 0x80 PUSH1 0x40 MSTORE CALLVALUE DUP1 ISZERO PUSH2 0xF JUMPI PUSH0 DUP1 REVERT JUMPDEST POP PUSH1 0x40 MLOAD PUSH2 0x16C2 CODESIZE SUB DUP1 PUSH2 0x16C2 DUP4 CODECOPY DUP2 DUP2 ADD PUSH1 0x40 MSTORE DUP2 ADD SWAP1 PUSH2 0x31 SWAP2 SWAP1 PUSH2 0xFB JUMP JUMPDEST PUSH0 DUP2 SWAP1 DUP1 PUSH1 0x1 DUP2 SLOAD ADD DUP1 DUP3 SSTORE DUP1 SWAP2 POP POP PUSH1 0x1 SWAP1 SUB SWAP1 PUSH0 MSTORE PUSH1 0x20 PUSH0 KECCAK256 ADD PUSH0 SWAP1 SWAP2 SWAP1 SWAP2 SWAP1 SWAP2 PUSH2 0x100 EXP DUP2 SLOAD DUP2 PUSH20 0xFFFFFFFFFFFFFFFFFFFFFFFFFFFFFFFFFFFFFFFF MUL NOT AND SWAP1 DUP4 PUSH20 0xFFFFFFFFFFFFFFFFFFFFFFFFFFFFFFFFFFFFFFFF AND MUL OR SWAP1 SSTORE POP PUSH0 PUSH1 0x1 DUP2 SWAP1 SSTORE POP POP PUSH2 0x126 JUMP JUMPDEST PUSH0 DUP1 REVERT JUMPDEST PUSH0 PUSH20 0xFFFFFFFFFFFFFFFFFFFFFFFFFFFFFFFFFFFFFFFF DUP3 AND SWAP1 POP SWAP2 SWAP1 POP JUMP JUMPDEST PUSH0 PUSH2 0xCA DUP3 PUSH2 0xA1 JUMP JUMPDEST SWAP1 POP SWAP2 SWAP1 POP JUMP JUMPDEST PUSH2 0xDA DUP2 PUSH2 0xC0 JUMP JUMPDEST DUP2 EQ PUSH2 0xE4 JUMPI PUSH0 DUP1 REVERT JUMPDEST POP JUMP JUMPDEST PUSH0 DUP2 MLOAD SWAP1 POP PUSH2 0xF5 DUP2 PUSH2 0xD1 JUMP JUMPDEST SWAP3 SWAP2 POP POP JUMP JUMPDEST PUSH0 PUSH1 0x20 DUP3 DUP5 SUB SLT ISZERO PUSH2 0x110 JUMPI PUSH2 0x10F PUSH2 0x9D JUMP JUMPDEST JUMPDEST PUSH0 PUSH2 0x11D DUP5 DUP3 DUP6 ADD PUSH2 0xE7 JUMP JUMPDEST SWAP2 POP POP SWAP3 SWAP2 POP POP JUMP JUMPDEST PUSH2 0x158F DUP1 PUSH2 0x133 PUSH0 CODECOPY PUSH0 RETURN INVALID PUSH1 0x80 PUSH1 0x40 MSTORE CALLVALUE DUP1 ISZERO PUSH2 0xF JUMPI PUSH0 DUP1 REVERT JUMPDEST POP PUSH1 0x4 CALLDATASIZE LT PUSH2 0x55 JUMPI PUSH0 CALLDATALOAD PUSH1 0xE0 SHR DUP1 PUSH4 0x196CAE59 EQ PUSH2 0x59 JUMPI DUP1 PUSH4 0x6A348B7B EQ PUSH2 0x75 JUMPI DUP1 PUSH4 0x71658896 EQ PUSH2 0x91 JUMPI DUP1 PUSH4 0xBFA0FC93 EQ PUSH2 0xC1 JUMPI DUP1 PUSH4 0xDC296AE1 EQ PUSH2 0xF2 JUMPI JUMPDEST PUSH0 DUP1 REVERT JUMPDEST PUSH2 0x73 PUSH1 0x4 DUP1 CALLDATASIZE SUB DUP2 ADD SWAP1 PUSH2 0x6E SWAP2 SWAP1 PUSH2 0xA92 JUMP JUMPDEST PUSH2 0x122 JUMP JUMPDEST STOP JUMPDEST PUSH2 0x8F PUSH1 0x4 DUP1 CALLDATASIZE SUB DUP2 ADD SWAP1 PUSH2 0x8A SWAP2 SWAP1 PUSH2 0xBB3 JUMP JUMPDEST PUSH2 0x2ED JUMP JUMPDEST STOP JUMPDEST PUSH2 0xAB PUSH1 0x4 DUP1 CALLDATASIZE SUB DUP2 ADD SWAP1 PUSH2 0xA6 SWAP2 SWAP1 PUSH2 0xC03 JUMP JUMPDEST PUSH2 0x4AF JUMP JUMPDEST PUSH1 0x40 MLOAD PUSH2 0xB8 SWAP2 SWAP1 PUSH2 0xD5E JUMP JUMPDEST PUSH1 0x40 MLOAD DUP1 SWAP2 SUB SWAP1 RETURN JUMPDEST PUSH2 0xDB PUSH1 0x4 DUP1 CALLDATASIZE SUB DUP2 ADD SWAP1 PUSH2 0xD6 SWAP2 SWAP1 PUSH2 0xC03 JUMP JUMPDEST PUSH2 0x6EF JUMP JUMPDEST PUSH1 0x40 MLOAD PUSH2 0xE9 SWAP3 SWAP2 SWAP1 PUSH2 0xD8D JUMP JUMPDEST PUSH1 0x40 MLOAD DUP1 SWAP2 SUB SWAP1 RETURN JUMPDEST PUSH2 0x10C PUSH1 0x4 DUP1 CALLDATASIZE SUB DUP2 ADD SWAP1 PUSH2 0x107 SWAP2 SWAP1 PUSH2 0xDB4 JUMP JUMPDEST PUSH2 0x752 JUMP JUMPDEST PUSH1 0x40 MLOAD PUSH2 0x119 SWAP2 SWAP1 PUSH2 0xE01 JUMP JUMPDEST PUSH1 0x40 MLOAD DUP1 SWAP2 SUB SWAP1 RETURN JUMPDEST DUP4 PUSH0 DUP1 JUMPDEST PUSH0 DUP1 SLOAD SWAP1 POP DUP2 LT ISZERO PUSH2 0x1B5 JUMPI DUP3 PUSH20 0xFFFFFFFFFFFFFFFFFFFFFFFFFFFFFFFFFFFFFFFF AND PUSH0 DUP3 DUP2 SLOAD DUP2 LT PUSH2 0x15C JUMPI PUSH2 0x15B PUSH2 0xE1A JUMP JUMPDEST JUMPDEST SWAP1 PUSH0 MSTORE PUSH1 0x20 PUSH0 KECCAK256 ADD PUSH0 SWAP1 SLOAD SWAP1 PUSH2 0x100 EXP SWAP1 DIV PUSH20 0xFFFFFFFFFFFFFFFFFFFFFFFFFFFFFFFFFFFFFFFF AND PUSH20 0xFFFFFFFFFFFFFFFFFFFFFFFFFFFFFFFFFFFFFFFF AND SUB PUSH2 0x1A8 JUMPI PUSH1 0x1 SWAP2 POP PUSH2 0x1B5 JUMP JUMPDEST DUP1 DUP1 PUSH1 0x1 ADD SWAP2 POP POP PUSH2 0x126 JUMP JUMPDEST POP DUP1 PUSH2 0x1C4 JUMPI PUSH2 0x1C3 PUSH2 0x7B4 JUMP JUMPDEST JUMPDEST PUSH1 0x1 PUSH0 DUP2 SLOAD DUP1 SWAP3 SWAP2 SWAP1 PUSH2 0x1D6 SWAP1 PUSH2 0xE74 JUMP JUMPDEST SWAP2 SWAP1 POP SSTORE POP PUSH1 0x40 MLOAD DUP1 PUSH1 0xE0 ADD PUSH1 0x40 MSTORE DUP1 PUSH1 0x1 SLOAD DUP2 MSTORE PUSH1 0x20 ADD DUP7 DUP2 MSTORE PUSH1 0x20 ADD DUP6 DUP2 MSTORE PUSH1 0x20 ADD DUP5 DUP2 MSTORE PUSH1 0x20 ADD PUSH0 DUP2 MSTORE PUSH1 0x20 ADD PUSH0 DUP2 MSTORE PUSH1 0x20 ADD PUSH1 0x1 ISZERO ISZERO DUP2 MSTORE POP PUSH1 0x2 PUSH0 PUSH1 0x1 SLOAD DUP2 MSTORE PUSH1 0x20 ADD SWAP1 DUP2 MSTORE PUSH1 0x20 ADD PUSH0 KECCAK256 PUSH0 DUP3 ADD MLOAD DUP2 PUSH0 ADD SSTORE PUSH1 0x20 DUP3 ADD MLOAD DUP2 PUSH1 0x1 ADD SWAP1 DUP2 PUSH2 0x243 SWAP2 SWAP1 PUSH2 0x10B5 JUMP JUMPDEST POP PUSH1 0x40 DUP3 ADD MLOAD DUP2 PUSH1 0x2 ADD SWAP1 DUP2 PUSH2 0x259 SWAP2 SWAP1 PUSH2 0x10B5 JUMP JUMPDEST POP PUSH1 0x60 DUP3 ADD MLOAD DUP2 PUSH1 0x3 ADD SWAP1 DUP2 PUSH2 0x26F SWAP2 SWAP1 PUSH2 0x10B5 JUMP JUMPDEST POP PUSH1 0x80 DUP3 ADD MLOAD DUP2 PUSH1 0x4 ADD SSTORE PUSH1 0xA0 DUP3 ADD MLOAD DUP2 PUSH1 0x5 ADD SSTORE PUSH1 0xC0 DUP3 ADD MLOAD DUP2 PUSH1 0x6 ADD PUSH0 PUSH2 0x100 EXP DUP2 SLOAD DUP2 PUSH1 0xFF MUL NOT AND SWAP1 DUP4 ISZERO ISZERO MUL OR SWAP1 SSTORE POP SWAP1 POP POP PUSH32 0xB350A44D99EE5E618CC6B9099E6E1921CCB2E72B5D611D1F17623D17F83110DE PUSH1 0x1 SLOAD DUP7 DUP7 DUP7 PUSH1 0x40 MLOAD PUSH2 0x2DD SWAP5 SWAP4 SWAP3 SWAP2 SWAP1 PUSH2 0x11CC JUMP JUMPDEST PUSH1 0x40 MLOAD DUP1 SWAP2 SUB SWAP1 LOG1 POP POP POP POP POP POP JUMP JUMPDEST PUSH1 0x2 PUSH0 DUP4 DUP2 MSTORE PUSH1 0x20 ADD SWAP1 DUP2 MSTORE PUSH1 0x20 ADD PUSH0 KECCAK256 PUSH1 0x6 ADD PUSH0 SWAP1 SLOAD SWAP1 PUSH2 0x100 EXP SWAP1 DIV PUSH1 0xFF AND PUSH2 0x31B JUMPI PUSH2 0x31A PUSH2 0x7F3 JUMP JUMPDEST JUMPDEST PUSH1 0x3 PUSH0 DUP5 PUSH20 0xFFFFFFFFFFFFFFFFFFFFFFFFFFFFFFFFFFFFFFFF AND PUSH20 0xFFFFFFFFFFFFFFFFFFFFFFFFFFFFFFFFFFFFFFFF AND DUP2 MSTORE PUSH1 0x20 ADD SWAP1 DUP2 MSTORE PUSH1 0x20 ADD PUSH0 KECCAK256 PUSH0 DUP4 DUP2 MSTORE PUSH1 0x20 ADD SWAP1 DUP2 MSTORE PUSH1 0x20 ADD PUSH0 KECCAK256 PUSH0 SWAP1 SLOAD SWAP1 PUSH2 0x100 EXP SWAP1 DIV PUSH1 0xFF AND ISZERO PUSH2 0x382 JUMPI PUSH2 0x381 PUSH2 0x832 JUMP JUMPDEST JUMPDEST PUSH1 0x1 DUP2 PUSH1 0xFF AND EQ ISZERO DUP1 ISZERO PUSH2 0x39A JUMPI POP PUSH1 0x2 DUP2 PUSH1 0xFF AND EQ ISZERO JUMPDEST ISZERO PUSH2 0x3A8 JUMPI PUSH2 0x3A7 PUSH2 0x871 JUMP JUMPDEST JUMPDEST PUSH1 0x1 DUP2 PUSH1 0xFF AND SUB PUSH2 0x3E1 JUMPI PUSH1 0x2 PUSH0 DUP4 DUP2 MSTORE PUSH1 0x20 ADD SWAP1 DUP2 MSTORE PUSH1 0x20 ADD PUSH0 KECCAK256 PUSH1 0x4 ADD PUSH0 DUP2 SLOAD DUP1 SWAP3 SWAP2 SWAP1 PUSH2 0x3D7 SWAP1 PUSH2 0xE74 JUMP JUMPDEST SWAP2 SWAP1 POP SSTORE POP PUSH2 0x40B JUMP JUMPDEST PUSH1 0x2 PUSH0 DUP4 DUP2 MSTORE PUSH1 0x20 ADD SWAP1 DUP2 MSTORE PUSH1 0x20 ADD PUSH0 KECCAK256 PUSH1 0x5 ADD PUSH0 DUP2 SLOAD DUP1 SWAP3 SWAP2 SWAP1 PUSH2 0x405 SWAP1 PUSH2 0xE74 JUMP JUMPDEST SWAP2 SWAP1 POP SSTORE POP JUMPDEST PUSH1 0x1 PUSH1 0x3 PUSH0 DUP6 PUSH20 0xFFFFFFFFFFFFFFFFFFFFFFFFFFFFFFFFFFFFFFFF AND PUSH20 0xFFFFFFFFFFFFFFFFFFFFFFFFFFFFFFFFFFFFFFFF AND DUP2 MSTORE PUSH1 0x20 ADD SWAP1 DUP2 MSTORE PUSH1 0x20 ADD PUSH0 KECCAK256 PUSH0 DUP5 DUP2 MSTORE PUSH1 0x20 ADD SWAP1 DUP2 MSTORE PUSH1 0x20 ADD PUSH0 KECCAK256 PUSH0 PUSH2 0x100 EXP DUP2 SLOAD DUP2 PUSH1 0xFF MUL NOT AND SWAP1 DUP4 ISZERO ISZERO MUL OR SWAP1 SSTORE POP PUSH32 0x94F80829C509370ABB2D421A078BA5926755D3DE25D021DACF7BBD19853F7A2 DUP3 DUP5 DUP4 PUSH1 0x40 MLOAD PUSH2 0x4A2 SWAP4 SWAP3 SWAP2 SWAP1 PUSH2 0x1242 JUMP JUMPDEST PUSH1 0x40 MLOAD DUP1 SWAP2 SUB SWAP1 LOG1 POP POP POP JUMP JUMPDEST PUSH2 0x4B7 PUSH2 0x8B0 JUMP JUMPDEST PUSH1 0x2 PUSH0 DUP4 DUP2 MSTORE PUSH1 0x20 ADD SWAP1 DUP2 MSTORE PUSH1 0x20 ADD PUSH0 KECCAK256 PUSH1 0x6 ADD PUSH0 SWAP1 SLOAD SWAP1 PUSH2 0x100 EXP SWAP1 DIV PUSH1 0xFF AND PUSH2 0x4E5 JUMPI PUSH2 0x4E4 PUSH2 0x7F3 JUMP JUMPDEST JUMPDEST PUSH1 0x2 PUSH0 DUP4 DUP2 MSTORE PUSH1 0x20 ADD SWAP1 DUP2 MSTORE PUSH1 0x20 ADD PUSH0 KECCAK256 PUSH1 0x40 MLOAD DUP1 PUSH1 0xE0 ADD PUSH1 0x40 MSTORE SWAP1 DUP2 PUSH0 DUP3 ADD SLOAD DUP2 MSTORE PUSH1 0x20 ADD PUSH1 0x1 DUP3 ADD DUP1 SLOAD PUSH2 0x51A SWAP1 PUSH2 0xEE8 JUMP JUMPDEST DUP1 PUSH1 0x1F ADD PUSH1 0x20 DUP1 SWAP2 DIV MUL PUSH1 0x20 ADD PUSH1 0x40 MLOAD SWAP1 DUP2 ADD PUSH1 0x40 MSTORE DUP1 SWAP3 SWAP2 SWAP1 DUP2 DUP2 MSTORE PUSH1 0x20 ADD DUP3 DUP1 SLOAD PUSH2 0x546 SWAP1 PUSH2 0xEE8 JUMP JUMPDEST DUP1 ISZERO PUSH2 0x591 JUMPI DUP1 PUSH1 0x1F LT PUSH2 0x568 JUMPI PUSH2 0x100 DUP1 DUP4 SLOAD DIV MUL DUP4 MSTORE SWAP2 PUSH1 0x20 ADD SWAP2 PUSH2 0x591 JUMP JUMPDEST DUP3 ADD SWAP2 SWAP1 PUSH0 MSTORE PUSH1 0x20 PUSH0 KECCAK256 SWAP1 JUMPDEST DUP2 SLOAD DUP2 MSTORE SWAP1 PUSH1 0x1 ADD SWAP1 PUSH1 0x20 ADD DUP1 DUP4 GT PUSH2 0x574 JUMPI DUP3 SWAP1 SUB PUSH1 0x1F AND DUP3 ADD SWAP2 JUMPDEST POP POP POP POP POP DUP2 MSTORE PUSH1 0x20 ADD PUSH1 0x2 DUP3 ADD DUP1 SLOAD PUSH2 0x5AA SWAP1 PUSH2 0xEE8 JUMP JUMPDEST DUP1 PUSH1 0x1F ADD PUSH1 0x20 DUP1 SWAP2 DIV MUL PUSH1 0x20 ADD PUSH1 0x40 MLOAD SWAP1 DUP2 ADD PUSH1 0x40 MSTORE DUP1 SWAP3 SWAP2 SWAP1 DUP2 DUP2 MSTORE PUSH1 0x20 ADD DUP3 DUP1 SLOAD PUSH2 0x5D6 SWAP1 PUSH2 0xEE8 JUMP JUMPDEST DUP1 ISZERO PUSH2 0x621 JUMPI DUP1 PUSH1 0x1F LT PUSH2 0x5F8 JUMPI PUSH2 0x100 DUP1 DUP4 SLOAD DIV MUL DUP4 MSTORE SWAP2 PUSH1 0x20 ADD SWAP2 PUSH2 0x621 JUMP JUMPDEST DUP3 ADD SWAP2 SWAP1 PUSH0 MSTORE PUSH1 0x20 PUSH0 KECCAK256 SWAP1 JUMPDEST DUP2 SLOAD DUP2 MSTORE SWAP1 PUSH1 0x1 ADD SWAP1 PUSH1 0x20 ADD DUP1 DUP4 GT PUSH2 0x604 JUMPI DUP3 SWAP1 SUB PUSH1 0x1F AND DUP3 ADD SWAP2 JUMPDEST POP POP POP POP POP DUP2 MSTORE PUSH1 0x20 ADD PUSH1 0x3 DUP3 ADD DUP1 SLOAD PUSH2 0x63A SWAP1 PUSH2 0xEE8 JUMP JUMPDEST DUP1 PUSH1 0x1F ADD PUSH1 0x20 DUP1 SWAP2 DIV MUL PUSH1 0x20 ADD PUSH1 0x40 MLOAD SWAP1 DUP2 ADD PUSH1 0x40 MSTORE DUP1 SWAP3 SWAP2 SWAP1 DUP2 DUP2 MSTORE PUSH1 0x20 ADD DUP3 DUP1 SLOAD PUSH2 0x666 SWAP1 PUSH2 0xEE8 JUMP JUMPDEST DUP1 ISZERO PUSH2 0x6B1 JUMPI DUP1 PUSH1 0x1F LT PUSH2 0x688 JUMPI PUSH2 0x100 DUP1 DUP4 SLOAD DIV MUL DUP4 MSTORE SWAP2 PUSH1 0x20 ADD SWAP2 PUSH2 0x6B1 JUMP JUMPDEST DUP3 ADD SWAP2 SWAP1 PUSH0 MSTORE PUSH1 0x20 PUSH0 KECCAK256 SWAP1 JUMPDEST DUP2 SLOAD DUP2 MSTORE SWAP1 PUSH1 0x1 ADD SWAP1 PUSH1 0x20 ADD DUP1 DUP4 GT PUSH2 0x694 JUMPI DUP3 SWAP1 SUB PUSH1 0x1F AND DUP3 ADD SWAP2 JUMPDEST POP POP POP POP POP DUP2 MSTORE PUSH1 0x20 ADD PUSH1 0x4 DUP3 ADD SLOAD DUP2 MSTORE PUSH1 0x20 ADD PUSH1 0x5 DUP3 ADD SLOAD DUP2 MSTORE PUSH1 0x20 ADD PUSH1 0x6 DUP3 ADD PUSH0 SWAP1 SLOAD SWAP1 PUSH2 0x100 EXP SWAP1 DIV PUSH1 0xFF AND ISZERO ISZERO ISZERO ISZERO DUP2 MSTORE POP POP SWAP1 POP SWAP2 SWAP1 POP JUMP JUMPDEST PUSH0 DUP1 PUSH1 0x2 PUSH0 DUP5 DUP2 MSTORE PUSH1 0x20 ADD SWAP1 DUP2 MSTORE PUSH1 0x20 ADD PUSH0 KECCAK256 PUSH1 0x6 ADD PUSH0 SWAP1 SLOAD SWAP1 PUSH2 0x100 EXP SWAP1 DIV PUSH1 0xFF AND PUSH2 0x71F JUMPI PUSH2 0x71E PUSH2 0x7F3 JUMP JUMPDEST JUMPDEST PUSH1 0x2 PUSH0 DUP5 DUP2 MSTORE PUSH1 0x20 ADD SWAP1 DUP2 MSTORE PUSH1 0x20 ADD PUSH0 KECCAK256 PUSH1 0x4 ADD SLOAD PUSH1 0x2 PUSH0 DUP6 DUP2 MSTORE PUSH1 0x20 ADD SWAP1 DUP2 MSTORE PUSH1 0x20 ADD PUSH0 KECCAK256 PUSH1 0x5 ADD SLOAD SWAP2 POP SWAP2 POP SWAP2 POP SWAP2 JUMP JUMPDEST PUSH0 PUSH1 0x3 PUSH0 DUP4 PUSH20 0xFFFFFFFFFFFFFFFFFFFFFFFFFFFFFFFFFFFFFFFF AND PUSH20 0xFFFFFFFFFFFFFFFFFFFFFFFFFFFFFFFFFFFFFFFF AND DUP2 MSTORE PUSH1 0x20 ADD SWAP1 DUP2 MSTORE PUSH1 0x20 ADD PUSH0 KECCAK256 PUSH0 DUP5 DUP2 MSTORE PUSH1 0x20 ADD SWAP1 DUP2 MSTORE PUSH1 0x20 ADD PUSH0 KECCAK256 PUSH0 SWAP1 SLOAD SWAP1 PUSH2 0x100 EXP SWAP1 DIV PUSH1 0xFF AND SWAP1 POP SWAP3 SWAP2 POP POP JUMP JUMPDEST PUSH2 0x3E8 PUSH1 0x40 MLOAD PUSH32 0xB7418B0F00000000000000000000000000000000000000000000000000000000 DUP2 MSTORE PUSH1 0x4 ADD PUSH2 0x7EA SWAP2 SWAP1 PUSH2 0x12FA JUMP JUMPDEST PUSH1 0x40 MLOAD DUP1 SWAP2 SUB SWAP1 REVERT JUMPDEST PUSH2 0x7D0 PUSH1 0x40 MLOAD PUSH32 0x21DF64BB00000000000000000000000000000000000000000000000000000000 DUP2 MSTORE PUSH1 0x4 ADD PUSH2 0x829 SWAP2 SWAP1 PUSH2 0x13A9 JUMP JUMPDEST PUSH1 0x40 MLOAD DUP1 SWAP2 SUB SWAP1 REVERT JUMPDEST PUSH2 0xBB8 PUSH1 0x40 MLOAD PUSH32 0xB78815A400000000000000000000000000000000000000000000000000000000 DUP2 MSTORE PUSH1 0x4 ADD PUSH2 0x868 SWAP2 SWAP1 PUSH2 0x147E JUMP JUMPDEST PUSH1 0x40 MLOAD DUP1 SWAP2 SUB SWAP1 REVERT JUMPDEST PUSH2 0xFA0 PUSH1 0x40 MLOAD PUSH32 0x51C551DC00000000000000000000000000000000000000000000000000000000 DUP2 MSTORE PUSH1 0x4 ADD PUSH2 0x8A7 SWAP2 SWAP1 PUSH2 0x152D JUMP JUMPDEST PUSH1 0x40 MLOAD DUP1 SWAP2 SUB SWAP1 REVERT JUMPDEST PUSH1 0x40 MLOAD DUP1 PUSH1 0xE0 ADD PUSH1 0x40 MSTORE DUP1 PUSH0 DUP2 MSTORE PUSH1 0x20 ADD PUSH1 0x60 DUP2 MSTORE PUSH1 0x20 ADD PUSH1 0x60 DUP2 MSTORE PUSH1 0x20 ADD PUSH1 0x60 DUP2 MSTORE PUSH1 0x20 ADD PUSH0 DUP2 MSTORE PUSH1 0x20 ADD PUSH0 DUP2 MSTORE PUSH1 0x20 ADD PUSH0 ISZERO ISZERO DUP2 MSTORE POP SWAP1 JUMP JUMPDEST PUSH0 PUSH1 0x40 MLOAD SWAP1 POP SWAP1 JUMP JUMPDEST PUSH0 DUP1 REVERT JUMPDEST PUSH0 DUP1 REVERT JUMPDEST PUSH0 PUSH20 0xFFFFFFFFFFFFFFFFFFFFFFFFFFFFFFFFFFFFFFFF DUP3 AND SWAP1 POP SWAP2 SWAP1 POP JUMP JUMPDEST PUSH0 PUSH2 0x925 DUP3 PUSH2 0x8FC JUMP JUMPDEST SWAP1 POP SWAP2 SWAP1 POP JUMP JUMPDEST PUSH2 0x935 DUP2 PUSH2 0x91B JUMP JUMPDEST DUP2 EQ PUSH2 0x93F JUMPI PUSH0 DUP1 REVERT JUMPDEST POP JUMP JUMPDEST PUSH0 DUP2 CALLDATALOAD SWAP1 POP PUSH2 0x950 DUP2 PUSH2 0x92C JUMP JUMPDEST SWAP3 SWAP2 POP POP JUMP JUMPDEST PUSH0 DUP1 REVERT JUMPDEST PUSH0 DUP1 REVERT JUMPDEST PUSH0 PUSH1 0x1F NOT PUSH1 0x1F DUP4 ADD AND SWAP1 POP SWAP2 SWAP1 POP JUMP JUMPDEST PUSH32 0x4E487B7100000000000000000000000000000000000000000000000000000000 PUSH0 MSTORE PUSH1 0x41 PUSH1 0x4 MSTORE PUSH1 0x24 PUSH0 REVERT JUMPDEST PUSH2 0x9A4 DUP3 PUSH2 0x95E JUMP JUMPDEST DUP2 ADD DUP2 DUP2 LT PUSH8 0xFFFFFFFFFFFFFFFF DUP3 GT OR ISZERO PUSH2 0x9C3 JUMPI PUSH2 0x9C2 PUSH2 0x96E JUMP JUMPDEST JUMPDEST DUP1 PUSH1 0x40 MSTORE POP POP POP JUMP JUMPDEST PUSH0 PUSH2 0x9D5 PUSH2 0x8EB JUMP JUMPDEST SWAP1 POP PUSH2 0x9E1 DUP3 DUP3 PUSH2 0x99B JUMP JUMPDEST SWAP2 SWAP1 POP JUMP JUMPDEST PUSH0 PUSH8 0xFFFFFFFFFFFFFFFF DUP3 GT ISZERO PUSH2 0xA00 JUMPI PUSH2 0x9FF PUSH2 0x96E JUMP JUMPDEST JUMPDEST PUSH2 0xA09 DUP3 PUSH2 0x95E JUMP JUMPDEST SWAP1 POP PUSH1 0x20 DUP2 ADD SWAP1 POP SWAP2 SWAP1 POP JUMP JUMPDEST DUP3 DUP2 DUP4 CALLDATACOPY PUSH0 DUP4 DUP4 ADD MSTORE POP POP POP JUMP JUMPDEST PUSH0 PUSH2 0xA36 PUSH2 0xA31 DUP5 PUSH2 0x9E6 JUMP JUMPDEST PUSH2 0x9CC JUMP JUMPDEST SWAP1 POP DUP3 DUP2 MSTORE PUSH1 0x20 DUP2 ADD DUP5 DUP5 DUP5 ADD GT ISZERO PUSH2 0xA52 JUMPI PUSH2 0xA51 PUSH2 0x95A JUMP JUMPDEST JUMPDEST PUSH2 0xA5D DUP5 DUP3 DUP6 PUSH2 0xA16 JUMP JUMPDEST POP SWAP4 SWAP3 POP POP POP JUMP JUMPDEST PUSH0 DUP3 PUSH1 0x1F DUP4 ADD SLT PUSH2 0xA79 JUMPI PUSH2 0xA78 PUSH2 0x956 JUMP JUMPDEST JUMPDEST DUP2 CALLDATALOAD PUSH2 0xA89 DUP5 DUP3 PUSH1 0x20 DUP7 ADD PUSH2 0xA24 JUMP JUMPDEST SWAP2 POP POP SWAP3 SWAP2 POP POP JUMP JUMPDEST PUSH0 DUP1 PUSH0 DUP1 PUSH1 0x80 DUP6 DUP8 SUB SLT ISZERO PUSH2 0xAAA JUMPI PUSH2 0xAA9 PUSH2 0x8F4 JUMP JUMPDEST JUMPDEST PUSH0 PUSH2 0xAB7 DUP8 DUP3 DUP9 ADD PUSH2 0x942 JUMP JUMPDEST SWAP5 POP POP PUSH1 0x20 DUP6 ADD CALLDATALOAD PUSH8 0xFFFFFFFFFFFFFFFF DUP2 GT ISZERO PUSH2 0xAD8 JUMPI PUSH2 0xAD7 PUSH2 0x8F8 JUMP JUMPDEST JUMPDEST PUSH2 0xAE4 DUP8 DUP3 DUP9 ADD PUSH2 0xA65 JUMP JUMPDEST SWAP4 POP POP PUSH1 0x40 DUP6 ADD CALLDATALOAD PUSH8 0xFFFFFFFFFFFFFFFF DUP2 GT ISZERO PUSH2 0xB05 JUMPI PUSH2 0xB04 PUSH2 0x8F8 JUMP JUMPDEST JUMPDEST PUSH2 0xB11 DUP8 DUP3 DUP9 ADD PUSH2 0xA65 JUMP JUMPDEST SWAP3 POP POP PUSH1 0x60 DUP6 ADD CALLDATALOAD PUSH8 0xFFFFFFFFFFFFFFFF DUP2 GT ISZERO PUSH2 0xB32 JUMPI PUSH2 0xB31 PUSH2 0x8F8 JUMP JUMPDEST JUMPDEST PUSH2 0xB3E DUP8 DUP3 DUP9 ADD PUSH2 0xA65 JUMP JUMPDEST SWAP2 POP POP SWAP3 SWAP6 SWAP2 SWAP5 POP SWAP3 POP JUMP JUMPDEST PUSH0 DUP2 SWAP1 POP SWAP2 SWAP1 POP JUMP JUMPDEST PUSH2 0xB5C DUP2 PUSH2 0xB4A JUMP JUMPDEST DUP2 EQ PUSH2 0xB66 JUMPI PUSH0 DUP1 REVERT JUMPDEST POP JUMP JUMPDEST PUSH0 DUP2 CALLDATALOAD SWAP1 POP PUSH2 0xB77 DUP2 PUSH2 0xB53 JUMP JUMPDEST SWAP3 SWAP2 POP POP JUMP JUMPDEST PUSH0 PUSH1 0xFF DUP3 AND SWAP1 POP SWAP2 SWAP1 POP JUMP JUMPDEST PUSH2 0xB92 DUP2 PUSH2 0xB7D JUMP JUMPDEST DUP2 EQ PUSH2 0xB9C JUMPI PUSH0 DUP1 REVERT JUMPDEST POP JUMP JUMPDEST PUSH0 DUP2 CALLDATALOAD SWAP1 POP PUSH2 0xBAD DUP2 PUSH2 0xB89 JUMP JUMPDEST SWAP3 SWAP2 POP POP JUMP JUMPDEST PUSH0 DUP1 PUSH0 PUSH1 0x60 DUP5 DUP7 SUB SLT ISZERO PUSH2 0xBCA JUMPI PUSH2 0xBC9 PUSH2 0x8F4 JUMP JUMPDEST JUMPDEST PUSH0 PUSH2 0xBD7 DUP7 DUP3 DUP8 ADD PUSH2 0x942 JUMP JUMPDEST SWAP4 POP POP PUSH1 0x20 PUSH2 0xBE8 DUP7 DUP3 DUP8 ADD PUSH2 0xB69 JUMP JUMPDEST SWAP3 POP POP PUSH1 0x40 PUSH2 0xBF9 DUP7 DUP3 DUP8 ADD PUSH2 0xB9F JUMP JUMPDEST SWAP2 POP POP SWAP3 POP SWAP3 POP SWAP3 JUMP JUMPDEST PUSH0 PUSH1 0x20 DUP3 DUP5 SUB SLT ISZERO PUSH2 0xC18 JUMPI PUSH2 0xC17 PUSH2 0x8F4 JUMP JUMPDEST JUMPDEST PUSH0 PUSH2 0xC25 DUP5 DUP3 DUP6 ADD PUSH2 0xB69 JUMP JUMPDEST SWAP2 POP POP SWAP3 SWAP2 POP POP JUMP JUMPDEST PUSH2 0xC37 DUP2 PUSH2 0xB4A JUMP JUMPDEST DUP3 MSTORE POP POP JUMP JUMPDEST PUSH0 DUP2 MLOAD SWAP1 POP SWAP2 SWAP1 POP JUMP JUMPDEST PUSH0 DUP3 DUP3 MSTORE PUSH1 0x20 DUP3 ADD SWAP1 POP SWAP3 SWAP2 POP POP JUMP JUMPDEST DUP3 DUP2 DUP4 MCOPY PUSH0 DUP4 DUP4 ADD MSTORE POP POP POP JUMP JUMPDEST PUSH0 PUSH2 0xC6F DUP3 PUSH2 0xC3D JUMP JUMPDEST PUSH2 0xC79 DUP2 DUP6 PUSH2 0xC47 JUMP JUMPDEST SWAP4 POP PUSH2 0xC89 DUP2 DUP6 PUSH1 0x20 DUP7 ADD PUSH2 0xC57 JUMP JUMPDEST PUSH2 0xC92 DUP2 PUSH2 0x95E JUMP JUMPDEST DUP5 ADD SWAP2 POP POP SWAP3 SWAP2 POP POP JUMP JUMPDEST PUSH0 DUP2 ISZERO ISZERO SWAP1 POP SWAP2 SWAP1 POP JUMP JUMPDEST PUSH2 0xCB1 DUP2 PUSH2 0xC9D JUMP JUMPDEST DUP3 MSTORE POP POP JUMP JUMPDEST PUSH0 PUSH1 0xE0 DUP4 ADD PUSH0 DUP4 ADD MLOAD PUSH2 0xCCC PUSH0 DUP7 ADD DUP3 PUSH2 0xC2E JUMP JUMPDEST POP PUSH1 0x20 DUP4 ADD MLOAD DUP5 DUP3 SUB PUSH1 0x20 DUP7 ADD MSTORE PUSH2 0xCE4 DUP3 DUP3 PUSH2 0xC65 JUMP JUMPDEST SWAP2 POP POP PUSH1 0x40 DUP4 ADD MLOAD DUP5 DUP3 SUB PUSH1 0x40 DUP7 ADD MSTORE PUSH2 0xCFE DUP3 DUP3 PUSH2 0xC65 JUMP JUMPDEST SWAP2 POP POP PUSH1 0x60 DUP4 ADD MLOAD DUP5 DUP3 SUB PUSH1 0x60 DUP7 ADD MSTORE PUSH2 0xD18 DUP3 DUP3 PUSH2 0xC65 JUMP JUMPDEST SWAP2 POP POP PUSH1 0x80 DUP4 ADD MLOAD PUSH2 0xD2D PUSH1 0x80 DUP7 ADD DUP3 PUSH2 0xC2E JUMP JUMPDEST POP PUSH1 0xA0 DUP4 ADD MLOAD PUSH2 0xD40 PUSH1 0xA0 DUP7 ADD DUP3 PUSH2 0xC2E JUMP JUMPDEST POP PUSH1 0xC0 DUP4 ADD MLOAD PUSH2 0xD53 PUSH1 0xC0 DUP7 ADD DUP3 PUSH2 0xCA8 JUMP JUMPDEST POP DUP1 SWAP2 POP POP SWAP3 SWAP2 POP POP JUMP JUMPDEST PUSH0 PUSH1 0x20 DUP3 ADD SWAP1 POP DUP2 DUP2 SUB PUSH0 DUP4 ADD MSTORE PUSH2 0xD76 DUP2 DUP5 PUSH2 0xCB7 JUMP JUMPDEST SWAP1 POP SWAP3 SWAP2 POP POP JUMP JUMPDEST PUSH2 0xD87 DUP2 PUSH2 0xB4A JUMP JUMPDEST DUP3 MSTORE POP POP JUMP JUMPDEST PUSH0 PUSH1 0x40 DUP3 ADD SWAP1 POP PUSH2 0xDA0 PUSH0 DUP4 ADD DUP6 PUSH2 0xD7E JUMP JUMPDEST PUSH2 0xDAD PUSH1 0x20 DUP4 ADD DUP5 PUSH2 0xD7E JUMP JUMPDEST SWAP4 SWAP3 POP POP POP JUMP JUMPDEST PUSH0 DUP1 PUSH1 0x40 DUP4 DUP6 SUB SLT ISZERO PUSH2 0xDCA JUMPI PUSH2 0xDC9 PUSH2 0x8F4 JUMP JUMPDEST JUMPDEST PUSH0 PUSH2 0xDD7 DUP6 DUP3 DUP7 ADD PUSH2 0xB69 JUMP JUMPDEST SWAP3 POP POP PUSH1 0x20 PUSH2 0xDE8 DUP6 DUP3 DUP7 ADD PUSH2 0x942 JUMP JUMPDEST SWAP2 POP POP SWAP3 POP SWAP3 SWAP1 POP JUMP JUMPDEST PUSH2 0xDFB DUP2 PUSH2 0xC9D JUMP JUMPDEST DUP3 MSTORE POP POP JUMP JUMPDEST PUSH0 PUSH1 0x20 DUP3 ADD SWAP1 POP PUSH2 0xE14 PUSH0 DUP4 ADD DUP5 PUSH2 0xDF2 JUMP JUMPDEST SWAP3 SWAP2 POP POP JUMP JUMPDEST PUSH32 0x4E487B7100000000000000000000000000000000000000000000000000000000 PUSH0 MSTORE PUSH1 0x32 PUSH1 0x4 MSTORE PUSH1 0x24 PUSH0 REVERT JUMPDEST PUSH32 0x4E487B7100000000000000000000000000000000000000000000000000000000 PUSH0 MSTORE PUSH1 0x11 PUSH1 0x4 MSTORE PUSH1 0x24 PUSH0 REVERT JUMPDEST PUSH0 PUSH2 0xE7E DUP3 PUSH2 0xB4A JUMP JUMPDEST SWAP2 POP PUSH32 0xFFFFFFFFFFFFFFFFFFFFFFFFFFFFFFFFFFFFFFFFFFFFFFFFFFFFFFFFFFFFFFFF DUP3 SUB PUSH2 0xEB0 JUMPI PUSH2 0xEAF PUSH2 0xE47 JUMP JUMPDEST JUMPDEST PUSH1 0x1 DUP3 ADD SWAP1 POP SWAP2 SWAP1 POP JUMP JUMPDEST PUSH32 0x4E487B7100000000000000000000000000000000000000000000000000000000 PUSH0 MSTORE PUSH1 0x22 PUSH1 0x4 MSTORE PUSH1 0x24 PUSH0 REVERT JUMPDEST PUSH0 PUSH1 0x2 DUP3 DIV SWAP1 POP PUSH1 0x1 DUP3 AND DUP1 PUSH2 0xEFF JUMPI PUSH1 0x7F DUP3 AND SWAP2 POP JUMPDEST PUSH1 0x20 DUP3 LT DUP2 SUB PUSH2 0xF12 JUMPI PUSH2 0xF11 PUSH2 0xEBB JUMP JUMPDEST JUMPDEST POP SWAP2 SWAP1 POP JUMP JUMPDEST PUSH0 DUP2 SWAP1 POP DUP2 PUSH0 MSTORE PUSH1 0x20 PUSH0 KECCAK256 SWAP1 POP SWAP2 SWAP1 POP JUMP JUMPDEST PUSH0 PUSH1 0x20 PUSH1 0x1F DUP4 ADD DIV SWAP1 POP SWAP2 SWAP1 POP JUMP JUMPDEST PUSH0 DUP3 DUP3 SHL SWAP1 POP SWAP3 SWAP2 POP POP JUMP JUMPDEST PUSH0 PUSH1 0x8 DUP4 MUL PUSH2 0xF74 PUSH32 0xFFFFFFFFFFFFFFFFFFFFFFFFFFFFFFFFFFFFFFFFFFFFFFFFFFFFFFFFFFFFFFFF DUP3 PUSH2 0xF39 JUMP JUMPDEST PUSH2 0xF7E DUP7 DUP4 PUSH2 0xF39 JUMP JUMPDEST SWAP6 POP DUP1 NOT DUP5 AND SWAP4 POP DUP1 DUP7 AND DUP5 OR SWAP3 POP POP POP SWAP4 SWAP3 POP POP POP JUMP JUMPDEST PUSH0 DUP2 SWAP1 POP SWAP2 SWAP1 POP JUMP JUMPDEST PUSH0 PUSH2 0xFB9 PUSH2 0xFB4 PUSH2 0xFAF DUP5 PUSH2 0xB4A JUMP JUMPDEST PUSH2 0xF96 JUMP JUMPDEST PUSH2 0xB4A JUMP JUMPDEST SWAP1 POP SWAP2 SWAP1 POP JUMP JUMPDEST PUSH0 DUP2 SWAP1 POP SWAP2 SWAP1 POP JUMP JUMPDEST PUSH2 0xFD2 DUP4 PUSH2 0xF9F JUMP JUMPDEST PUSH2 0xFE6 PUSH2 0xFDE DUP3 PUSH2 0xFC0 JUMP JUMPDEST DUP5 DUP5 SLOAD PUSH2 0xF45 JUMP JUMPDEST DUP3 SSTORE POP POP POP POP JUMP JUMPDEST PUSH0 SWAP1 JUMP JUMPDEST PUSH2 0xFFA PUSH2 0xFEE JUMP JUMPDEST PUSH2 0x1005 DUP2 DUP5 DUP5 PUSH2 0xFC9 JUMP JUMPDEST POP POP POP JUMP JUMPDEST JUMPDEST DUP2 DUP2 LT ISZERO PUSH2 0x1028 JUMPI PUSH2 0x101D PUSH0 DUP3 PUSH2 0xFF2 JUMP JUMPDEST PUSH1 0x1 DUP2 ADD SWAP1 POP PUSH2 0x100B JUMP JUMPDEST POP POP JUMP JUMPDEST PUSH1 0x1F DUP3 GT ISZERO PUSH2 0x106D JUMPI PUSH2 0x103E DUP2 PUSH2 0xF18 JUMP JUMPDEST PUSH2 0x1047 DUP5 PUSH2 0xF2A JUMP JUMPDEST DUP2 ADD PUSH1 0x20 DUP6 LT ISZERO PUSH2 0x1056 JUMPI DUP2 SWAP1 POP JUMPDEST PUSH2 0x106A PUSH2 0x1062 DUP6 PUSH2 0xF2A JUMP JUMPDEST DUP4 ADD DUP3 PUSH2 0x100A JUMP JUMPDEST POP POP JUMPDEST POP POP POP JUMP JUMPDEST PUSH0 DUP3 DUP3 SHR SWAP1 POP SWAP3 SWAP2 POP POP JUMP JUMPDEST PUSH0 PUSH2 0x108D PUSH0 NOT DUP5 PUSH1 0x8 MUL PUSH2 0x1072 JUMP JUMPDEST NOT DUP1 DUP4 AND SWAP2 POP POP SWAP3 SWAP2 POP POP JUMP JUMPDEST PUSH0 PUSH2 0x10A5 DUP4 DUP4 PUSH2 0x107E JUMP JUMPDEST SWAP2 POP DUP3 PUSH1 0x2 MUL DUP3 OR SWAP1 POP SWAP3 SWAP2 POP POP JUMP JUMPDEST PUSH2 0x10BE DUP3 PUSH2 0xC3D JUMP JUMPDEST PUSH8 0xFFFFFFFFFFFFFFFF DUP2 GT ISZERO PUSH2 0x10D7 JUMPI PUSH2 0x10D6 PUSH2 0x96E JUMP JUMPDEST JUMPDEST PUSH2 0x10E1 DUP3 SLOAD PUSH2 0xEE8 JUMP JUMPDEST PUSH2 0x10EC DUP3 DUP3 DUP6 PUSH2 0x102C JUMP JUMPDEST PUSH0 PUSH1 0x20 SWAP1 POP PUSH1 0x1F DUP4 GT PUSH1 0x1 DUP2 EQ PUSH2 0x111D JUMPI PUSH0 DUP5 ISZERO PUSH2 0x110B JUMPI DUP3 DUP8 ADD MLOAD SWAP1 POP JUMPDEST PUSH2 0x1115 DUP6 DUP3 PUSH2 0x109A JUMP JUMPDEST DUP7 SSTORE POP PUSH2 0x117C JUMP JUMPDEST PUSH1 0x1F NOT DUP5 AND PUSH2 0x112B DUP7 PUSH2 0xF18 JUMP JUMPDEST PUSH0 JUMPDEST DUP3 DUP2 LT ISZERO PUSH2 0x1152 JUMPI DUP5 DUP10 ADD MLOAD DUP3 SSTORE PUSH1 0x1 DUP3 ADD SWAP2 POP PUSH1 0x20 DUP6 ADD SWAP5 POP PUSH1 0x20 DUP2 ADD SWAP1 POP PUSH2 0x112D JUMP JUMPDEST DUP7 DUP4 LT ISZERO PUSH2 0x116F JUMPI DUP5 DUP10 ADD MLOAD PUSH2 0x116B PUSH1 0x1F DUP10 AND DUP3 PUSH2 0x107E JUMP JUMPDEST DUP4 SSTORE POP JUMPDEST PUSH1 0x1 PUSH1 0x2 DUP9 MUL ADD DUP9 SSTORE POP POP POP JUMPDEST POP POP POP POP POP POP JUMP JUMPDEST PUSH0 DUP3 DUP3 MSTORE PUSH1 0x20 DUP3 ADD SWAP1 POP SWAP3 SWAP2 POP POP JUMP JUMPDEST PUSH0 PUSH2 0x119E DUP3 PUSH2 0xC3D JUMP JUMPDEST PUSH2 0x11A8 DUP2 DUP6 PUSH2 0x1184 JUMP JUMPDEST SWAP4 POP PUSH2 0x11B8 DUP2 DUP6 PUSH1 0x20 DUP7 ADD PUSH2 0xC57 JUMP JUMPDEST PUSH2 0x11C1 DUP2 PUSH2 0x95E JUMP JUMPDEST DUP5 ADD SWAP2 POP POP SWAP3 SWAP2 POP POP JUMP JUMPDEST PUSH0 PUSH1 0x80 DUP3 ADD SWAP1 POP PUSH2 0x11DF PUSH0 DUP4 ADD DUP8 PUSH2 0xD7E JUMP JUMPDEST DUP2 DUP2 SUB PUSH1 0x20 DUP4 ADD MSTORE PUSH2 0x11F1 DUP2 DUP7 PUSH2 0x1194 JUMP JUMPDEST SWAP1 POP DUP2 DUP2 SUB PUSH1 0x40 DUP4 ADD MSTORE PUSH2 0x1205 DUP2 DUP6 PUSH2 0x1194 JUMP JUMPDEST SWAP1 POP DUP2 DUP2 SUB PUSH1 0x60 DUP4 ADD MSTORE PUSH2 0x1219 DUP2 DUP5 PUSH2 0x1194 JUMP JUMPDEST SWAP1 POP SWAP6 SWAP5 POP POP POP POP POP JUMP JUMPDEST PUSH2 0x122D DUP2 PUSH2 0x91B JUMP JUMPDEST DUP3 MSTORE POP POP JUMP JUMPDEST PUSH2 0x123C DUP2 PUSH2 0xB7D JUMP JUMPDEST DUP3 MSTORE POP POP JUMP JUMPDEST PUSH0 PUSH1 0x60 DUP3 ADD SWAP1 POP PUSH2 0x1255 PUSH0 DUP4 ADD DUP7 PUSH2 0xD7E JUMP JUMPDEST PUSH2 0x1262 PUSH1 0x20 DUP4 ADD DUP6 PUSH2 0x1224 JUMP JUMPDEST PUSH2 0x126F PUSH1 0x40 DUP4 ADD DUP5 PUSH2 0x1233 JUMP JUMPDEST SWAP5 SWAP4 POP POP POP POP JUMP JUMPDEST PUSH0 DUP2 SWAP1 POP SWAP2 SWAP1 POP JUMP JUMPDEST PUSH0 PUSH2 0x129A PUSH2 0x1295 PUSH2 0x1290 DUP5 PUSH2 0x1277 JUMP JUMPDEST PUSH2 0xF96 JUMP JUMPDEST PUSH2 0xB4A JUMP JUMPDEST SWAP1 POP SWAP2 SWAP1 POP JUMP JUMPDEST PUSH2 0x12AA DUP2 PUSH2 0x1280 JUMP JUMPDEST DUP3 MSTORE POP POP JUMP JUMPDEST PUSH32 0x496E76616C6964205065726D697373696F6E0000000000000000000000000000 PUSH0 DUP3 ADD MSTORE POP JUMP JUMPDEST PUSH0 PUSH2 0x12E4 PUSH1 0x12 DUP4 PUSH2 0x1184 JUMP JUMPDEST SWAP2 POP PUSH2 0x12EF DUP3 PUSH2 0x12B0 JUMP JUMPDEST PUSH1 0x20 DUP3 ADD SWAP1 POP SWAP2 SWAP1 POP JUMP JUMPDEST PUSH0 PUSH1 0x40 DUP3 ADD SWAP1 POP PUSH2 0x130D PUSH0 DUP4 ADD DUP5 PUSH2 0x12A1 JUMP JUMPDEST DUP2 DUP2 SUB PUSH1 0x20 DUP4 ADD MSTORE PUSH2 0x131E DUP2 PUSH2 0x12D8 JUMP JUMPDEST SWAP1 POP SWAP3 SWAP2 POP POP JUMP JUMPDEST PUSH0 DUP2 SWAP1 POP SWAP2 SWAP1 POP JUMP JUMPDEST PUSH0 PUSH2 0x1349 PUSH2 0x1344 PUSH2 0x133F DUP5 PUSH2 0x1326 JUMP JUMPDEST PUSH2 0xF96 JUMP JUMPDEST PUSH2 0xB4A JUMP JUMPDEST SWAP1 POP SWAP2 SWAP1 POP JUMP JUMPDEST PUSH2 0x1359 DUP2 PUSH2 0x132F JUMP JUMPDEST DUP3 MSTORE POP POP JUMP JUMPDEST PUSH32 0x546F706963206E6F7420666F756E640000000000000000000000000000000000 PUSH0 DUP3 ADD MSTORE POP JUMP JUMPDEST PUSH0 PUSH2 0x1393 PUSH1 0xF DUP4 PUSH2 0x1184 JUMP JUMPDEST SWAP2 POP PUSH2 0x139E DUP3 PUSH2 0x135F JUMP JUMPDEST PUSH1 0x20 DUP3 ADD SWAP1 POP SWAP2 SWAP1 POP JUMP JUMPDEST PUSH0 PUSH1 0x40 DUP3 ADD SWAP1 POP PUSH2 0x13BC PUSH0 DUP4 ADD DUP5 PUSH2 0x1350 JUMP JUMPDEST DUP2 DUP2 SUB PUSH1 0x20 DUP4 ADD MSTORE PUSH2 0x13CD DUP2 PUSH2 0x1387 JUMP JUMPDEST SWAP1 POP SWAP3 SWAP2 POP POP JUMP JUMPDEST PUSH0 DUP2 SWAP1 POP SWAP2 SWAP1 POP JUMP JUMPDEST PUSH0 PUSH2 0x13F8 PUSH2 0x13F3 PUSH2 0x13EE DUP5 PUSH2 0x13D5 JUMP JUMPDEST PUSH2 0xF96 JUMP JUMPDEST PUSH2 0xB4A JUMP JUMPDEST SWAP1 POP SWAP2 SWAP1 POP JUMP JUMPDEST PUSH2 0x1408 DUP2 PUSH2 0x13DE JUMP JUMPDEST DUP3 MSTORE POP POP JUMP JUMPDEST PUSH32 0x557365722068617320616C726561647920766F746564206F6E20746869732074 PUSH0 DUP3 ADD MSTORE PUSH32 0x6F70696300000000000000000000000000000000000000000000000000000000 PUSH1 0x20 DUP3 ADD MSTORE POP JUMP JUMPDEST PUSH0 PUSH2 0x1468 PUSH1 0x24 DUP4 PUSH2 0x1184 JUMP JUMPDEST SWAP2 POP PUSH2 0x1473 DUP3 PUSH2 0x140E JUMP JUMPDEST PUSH1 0x40 DUP3 ADD SWAP1 POP SWAP2 SWAP1 POP JUMP JUMPDEST PUSH0 PUSH1 0x40 DUP3 ADD SWAP1 POP PUSH2 0x1491 PUSH0 DUP4 ADD DUP5 PUSH2 0x13FF JUMP JUMPDEST DUP2 DUP2 SUB PUSH1 0x20 DUP4 ADD MSTORE PUSH2 0x14A2 DUP2 PUSH2 0x145C JUMP JUMPDEST SWAP1 POP SWAP3 SWAP2 POP POP JUMP JUMPDEST PUSH0 DUP2 SWAP1 POP SWAP2 SWAP1 POP JUMP JUMPDEST PUSH0 PUSH2 0x14CD PUSH2 0x14C8 PUSH2 0x14C3 DUP5 PUSH2 0x14AA JUMP JUMPDEST PUSH2 0xF96 JUMP JUMPDEST PUSH2 0xB4A JUMP JUMPDEST SWAP1 POP SWAP2 SWAP1 POP JUMP JUMPDEST PUSH2 0x14DD DUP2 PUSH2 0x14B3 JUMP JUMPDEST DUP3 MSTORE POP POP JUMP JUMPDEST PUSH32 0x496E76616C696420766F7465206F7074696F6E00000000000000000000000000 PUSH0 DUP3 ADD MSTORE POP JUMP JUMPDEST PUSH0 PUSH2 0x1517 PUSH1 0x13 DUP4 PUSH2 0x1184 JUMP JUMPDEST SWAP2 POP PUSH2 0x1522 DUP3 PUSH2 0x14E3 JUMP JUMPDEST PUSH1 0x20 DUP3 ADD SWAP1 POP SWAP2 SWAP1 POP JUMP JUMPDEST PUSH0 PUSH1 0x40 DUP3 ADD SWAP1 POP PUSH2 0x1540 PUSH0 DUP4 ADD DUP5 PUSH2 0x14D4 JUMP JUMPDEST DUP2 DUP2 SUB PUSH1 0x20 DUP4 ADD MSTORE PUSH2 0x1551 DUP2 PUSH2 0x150B JUMP JUMPDEST SWAP1 POP SWAP3 SWAP2 POP POP JUMP INVALID LOG2 PUSH5 0x6970667358 0x22 SLT KECCAK256 CALL SWAP6 CREATE2 TIMESTAMP 0xC0 SWAP13 0x22 PUSH22 0x356F1CD80EFB5CDC7CE3BCE4A47C2A87099C85DB05CA PUSH21 0x3264736F6C634300081A0033000000000000000000 "
		},
		"gasEstimates": {
			"creation": {
				"codeDepositCost": "1103800",
				"executionCost": "infinite",
				"totalCost": "infinite"
			},
			"external": {
				"createTopic(address,string,string,string)": "infinite",
				"getTopic(uint256)": "infinite",
				"getVoteResult(uint256)": "infinite",
				"hasUserVoted(uint256,address)": "3183",
				"vote(address,uint256,uint8)": "infinite"
			},
			"internal": {
				"revertAlreadyVoted()": "infinite",
				"revertInvalidPermission()": "infinite",
				"revertInvalidTopic()": "infinite",
				"revertInvalidVoteOption()": "infinite"
			}
		},
		"methodIdentifiers": {
			"createTopic(address,string,string,string)": "196cae59",
			"getTopic(uint256)": "71658896",
			"getVoteResult(uint256)": "bfa0fc93",
			"hasUserVoted(uint256,address)": "dc296ae1",
			"vote(address,uint256,uint8)": "6a348b7b"
		}
	},
	"abi": [
		{
			"inputs": [
				{
					"internalType": "address",
					"name": "ownerAddress",
					"type": "address"
				}
			],
			"stateMutability": "nonpayable",
			"type": "constructor"
		},
		{
			"inputs": [
				{
					"internalType": "uint256",
					"name": "errorCode",
					"type": "uint256"
				},
				{
					"internalType": "string",
					"name": "message",
					"type": "string"
				}
			],
			"name": "AlreadyVoted",
			"type": "error"
		},
		{
			"inputs": [
				{
					"internalType": "uint256",
					"name": "errorCode",
					"type": "uint256"
				},
				{
					"internalType": "string",
					"name": "message",
					"type": "string"
				}
			],
			"name": "InvalidPermission",
			"type": "error"
		},
		{
			"inputs": [
				{
					"internalType": "uint256",
					"name": "errorCode",
					"type": "uint256"
				},
				{
					"internalType": "string",
					"name": "message",
					"type": "string"
				}
			],
			"name": "InvalidTopic",
			"type": "error"
		},
		{
			"inputs": [
				{
					"internalType": "uint256",
					"name": "errorCode",
					"type": "uint256"
				},
				{
					"internalType": "string",
					"name": "message",
					"type": "string"
				}
			],
			"name": "InvalidVoteOption",
			"type": "error"
		},
		{
			"anonymous": false,
			"inputs": [
				{
					"indexed": false,
					"internalType": "uint256",
					"name": "topicNo",
					"type": "uint256"
				},
				{
					"indexed": false,
					"internalType": "string",
					"name": "question",
					"type": "string"
				},
				{
					"indexed": false,
					"internalType": "string",
					"name": "option1",
					"type": "string"
				},
				{
					"indexed": false,
					"internalType": "string",
					"name": "option2",
					"type": "string"
				}
			],
			"name": "TopicCreated",
			"type": "event"
		},
		{
			"anonymous": false,
			"inputs": [
				{
					"indexed": false,
					"internalType": "uint256",
					"name": "topicNo",
					"type": "uint256"
				},
				{
					"indexed": false,
					"internalType": "address",
					"name": "voter",
					"type": "address"
				},
				{
					"indexed": false,
					"internalType": "uint8",
					"name": "option",
					"type": "uint8"
				}
			],
			"name": "Voted",
			"type": "event"
		},
		{
			"inputs": [
				{
					"internalType": "address",
					"name": "requestAddress",
					"type": "address"
				},
				{
					"internalType": "string",
					"name": "_question",
					"type": "string"
				},
				{
					"internalType": "string",
					"name": "_option1",
					"type": "string"
				},
				{
					"internalType": "string",
					"name": "_option2",
					"type": "string"
				}
			],
			"name": "createTopic",
			"outputs": [],
			"stateMutability": "nonpayable",
			"type": "function"
		},
		{
			"inputs": [
				{
					"internalType": "uint256",
					"name": "topicNo",
					"type": "uint256"
				}
			],
			"name": "getTopic",
			"outputs": [
				{
					"components": [
						{
							"internalType": "uint256",
							"name": "topicNo",
							"type": "uint256"
						},
						{
							"internalType": "string",
							"name": "question",
							"type": "string"
						},
						{
							"internalType": "string",
							"name": "option1",
							"type": "string"
						},
						{
							"internalType": "string",
							"name": "option2",
							"type": "string"
						},
						{
							"internalType": "uint256",
							"name": "option1VoteCount",
							"type": "uint256"
						},
						{
							"internalType": "uint256",
							"name": "option2VoteCount",
							"type": "uint256"
						},
						{
							"internalType": "bool",
							"name": "exists",
							"type": "bool"
						}
					],
					"internalType": "struct VoteService.Topic",
					"name": "",
					"type": "tuple"
				}
			],
			"stateMutability": "view",
			"type": "function"
		},
		{
			"inputs": [
				{
					"internalType": "uint256",
					"name": "topicNo",
					"type": "uint256"
				}
			],
			"name": "getVoteResult",
			"outputs": [
				{
					"internalType": "uint256",
					"name": "",
					"type": "uint256"
				},
				{
					"internalType": "uint256",
					"name": "",
					"type": "uint256"
				}
			],
			"stateMutability": "view",
			"type": "function"
		},
		{
			"inputs": [
				{
					"internalType": "uint256",
					"name": "topicNo",
					"type": "uint256"
				},
				{
					"internalType": "address",
					"name": "userAddress",
					"type": "address"
				}
			],
			"name": "hasUserVoted",
			"outputs": [
				{
					"internalType": "bool",
					"name": "",
					"type": "bool"
				}
			],
			"stateMutability": "view",
			"type": "function"
		},
		{
			"inputs": [
				{
					"internalType": "address",
					"name": "userAddress",
					"type": "address"
				},
				{
					"internalType": "uint256",
					"name": "topicNo",
					"type": "uint256"
				},
				{
					"internalType": "uint8",
					"name": "option",
					"type": "uint8"
				}
			],
			"name": "vote",
			"outputs": [],
			"stateMutability": "nonpayable",
			"type": "function"
		}
	]
}